{
  "_format": "hh-sol-artifact-1",
  "contractName": "Voting",
  "sourceName": "contracts/Voting.sol",
  "abi": [
    {
      "inputs": [
        {
          "internalType": "string[]",
          "name": "_candidateNames",
          "type": "string[]"
        },
        {
          "internalType": "uint256",
          "name": "_durationInMinutes",
          "type": "uint256"
        }
      ],
      "stateMutability": "nonpayable",
      "type": "constructor"
    },
    {
      "inputs": [
        {
          "internalType": "uint256",
          "name": "",
          "type": "uint256"
        }
      ],
      "name": "candidates",
      "outputs": [
        {
          "internalType": "string",
          "name": "name",
          "type": "string"
        },
        {
          "internalType": "uint256",
          "name": "voteCount",
          "type": "uint256"
        }
      ],
      "stateMutability": "view",
      "type": "function"
    },
    {
      "inputs": [],
      "name": "getAllVotesOfCandiates",
      "outputs": [
        {
          "components": [
            {
              "internalType": "string",
              "name": "name",
              "type": "string"
            },
            {
              "internalType": "uint256",
              "name": "voteCount",
              "type": "uint256"
            }
          ],
          "internalType": "struct Voting.Candidate[]",
          "name": "",
          "type": "tuple[]"
        }
      ],
      "stateMutability": "view",
      "type": "function"
    },
    {
      "inputs": [],
      "name": "getRemainingTime",
      "outputs": [
        {
          "internalType": "uint256",
          "name": "",
          "type": "uint256"
        }
      ],
      "stateMutability": "view",
      "type": "function"
    },
    {
      "inputs": [],
      "name": "getVotingStatus",
      "outputs": [
        {
          "internalType": "bool",
          "name": "",
          "type": "bool"
        }
      ],
      "stateMutability": "view",
      "type": "function"
    },
    {
      "inputs": [],
      "name": "ok",
      "outputs": [
        {
          "internalType": "bool",
          "name": "",
          "type": "bool"
        }
      ],
      "stateMutability": "view",
      "type": "function"
    },
    {
      "inputs": [
        {
          "internalType": "uint256",
          "name": "_candidateIndex",
          "type": "uint256"
        }
      ],
      "name": "vote",
      "outputs": [],
      "stateMutability": "nonpayable",
      "type": "function"
    },
    {
      "inputs": [
        {
          "internalType": "address",
          "name": "",
          "type": "address"
        }
      ],
      "name": "voters",
      "outputs": [
        {
          "internalType": "bool",
          "name": "",
          "type": "bool"
        }
      ],
      "stateMutability": "view",
      "type": "function"
    },
    {
      "inputs": [],
      "name": "votingEnd",
      "outputs": [
        {
          "internalType": "uint256",
          "name": "",
          "type": "uint256"
        }
      ],
      "stateMutability": "view",
      "type": "function"
    },
    {
      "inputs": [],
      "name": "votingStart",
      "outputs": [
        {
          "internalType": "uint256",
          "name": "",
          "type": "uint256"
        }
      ],
      "stateMutability": "view",
      "type": "function"
    }
  ],
  "bytecode": "0x60806040523480156200001157600080fd5b506040516200151a3803806200151a833981810160405281019062000037919062000419565b60005b8251811015620000dc57600060405180604001604052808584815181106200006757620000666200047f565b5b60200260200101518152602001600081525090806001815401808255809150506001900390600052602060002090600202016000909190919091506000820151816000019081620000b99190620006ef565b506020820151816001015550508080620000d39062000805565b9150506200003a565b5033600160006101000a81548173ffffffffffffffffffffffffffffffffffffffff021916908373ffffffffffffffffffffffffffffffffffffffff16021790555042600381905550603c8162000134919062000852565b426200014191906200089d565b6004819055505050620008d8565b6000604051905090565b600080fd5b600080fd5b600080fd5b6000601f19601f8301169050919050565b7f4e487b7100000000000000000000000000000000000000000000000000000000600052604160045260246000fd5b620001b38262000168565b810181811067ffffffffffffffff82111715620001d557620001d462000179565b5b80604052505050565b6000620001ea6200014f565b9050620001f88282620001a8565b919050565b600067ffffffffffffffff8211156200021b576200021a62000179565b5b602082029050602081019050919050565b600080fd5b600080fd5b600067ffffffffffffffff82111562000254576200025362000179565b5b6200025f8262000168565b9050602081019050919050565b60005b838110156200028c5780820151818401526020810190506200026f565b60008484015250505050565b6000620002af620002a98462000236565b620001de565b905082815260208101848484011115620002ce57620002cd62000231565b5b620002db8482856200026c565b509392505050565b600082601f830112620002fb57620002fa62000163565b5b81516200030d84826020860162000298565b91505092915050565b60006200032d6200032784620001fd565b620001de565b905080838252602082019050602084028301858111156200035357620003526200022c565b5b835b81811015620003a157805167ffffffffffffffff8111156200037c576200037b62000163565b5b8086016200038b8982620002e3565b8552602085019450505060208101905062000355565b5050509392505050565b600082601f830112620003c357620003c262000163565b5b8151620003d584826020860162000316565b91505092915050565b6000819050919050565b620003f381620003de565b8114620003ff57600080fd5b50565b6000815190506200041381620003e8565b92915050565b6000806040838503121562000433576200043262000159565b5b600083015167ffffffffffffffff8111156200045457620004536200015e565b5b6200046285828601620003ab565b9250506020620004758582860162000402565b9150509250929050565b7f4e487b7100000000000000000000000000000000000000000000000000000000600052603260045260246000fd5b600081519050919050565b7f4e487b7100000000000000000000000000000000000000000000000000000000600052602260045260246000fd5b600060028204905060018216806200050157607f821691505b602082108103620005175762000516620004b9565b5b50919050565b60008190508160005260206000209050919050565b60006020601f8301049050919050565b600082821b905092915050565b600060088302620005817fffffffffffffffffffffffffffffffffffffffffffffffffffffffffffffffff8262000542565b6200058d868362000542565b95508019841693508086168417925050509392505050565b6000819050919050565b6000620005d0620005ca620005c484620003de565b620005a5565b620003de565b9050919050565b6000819050919050565b620005ec83620005af565b62000604620005fb82620005d7565b8484546200054f565b825550505050565b600090565b6200061b6200060c565b62000628818484620005e1565b505050565b5b8181101562000650576200064460008262000611565b6001810190506200062e565b5050565b601f8211156200069f5762000669816200051d565b620006748462000532565b8101602085101562000684578190505b6200069c620006938562000532565b8301826200062d565b50505b505050565b600082821c905092915050565b6000620006c460001984600802620006a4565b1980831691505092915050565b6000620006df8383620006b1565b9150826002028217905092915050565b620006fa82620004ae565b67ffffffffffffffff81111562000716576200071562000179565b5b620007228254620004e8565b6200072f82828562000654565b600060209050601f83116001811462000767576000841562000752578287015190505b6200075e8582620006d1565b865550620007ce565b601f19841662000777866200051d565b60005b82811015620007a1578489015182556001820191506020850194506020810190506200077a565b86831015620007c15784890151620007bd601f891682620006b1565b8355505b6001600288020188555050505b505050505050565b7f4e487b7100000000000000000000000000000000000000000000000000000000600052601160045260246000fd5b60006200081282620003de565b91507fffffffffffffffffffffffffffffffffffffffffffffffffffffffffffffffff8203620008475762000846620007d6565b5b600182019050919050565b60006200085f82620003de565b91506200086c83620003de565b92508282026200087c81620003de565b91508282048414831517620008965762000895620007d6565b5b5092915050565b6000620008aa82620003de565b9150620008b783620003de565b9250828201905080821115620008d257620008d1620007d6565b5b92915050565b610c3280620008e86000396000f3fe608060405234801561001057600080fd5b50600436106100935760003560e01c8063581c281c11610066578063581c281c1461012157806385a386351461013f578063a3ec138d1461015d578063d909b4031461018d578063efb98bcf146101ab57610093565b80630121b93f14610098578063101158af146100b45780633477ee2e146100d25780634d6bda5f14610103575b600080fd5b6100b260048036038101906100ad919061062c565b6101c9565b005b6100bc610333565b6040516100c99190610668565b60405180910390f35b6100ec60048036038101906100e7919061062c565b610339565b6040516100fa929190610713565b60405180910390f35b61010b6103f5565b604051610118919061089b565b60405180910390f35b6101296104f0565b60405161013691906108d8565b60405180910390f35b61014761050a565b6040516101549190610668565b60405180910390f35b61017760048036038101906101729190610951565b610510565b60405161018491906108d8565b60405180910390f35b610195610530565b6040516101a291906108d8565b60405180910390f35b6101b3610584565b6040516101c09190610668565b60405180910390f35b600260003373ffffffffffffffffffffffffffffffffffffffff1673ffffffffffffffffffffffffffffffffffffffff16815260200190815260200160002060009054906101000a900460ff1615610256576040517f08c379a000000000000000000000000000000000000000000000000000000000815260040161024d906109ca565b60405180910390fd5b600080549050811061029d576040517f08c379a000000000000000000000000000000000000000000000000000000000815260040161029490610a36565b60405180910390fd5b600081815481106102b1576102b0610a56565b5b906000526020600020906002020160010160008154809291906102d390610ab4565b91905055506001600260003373ffffffffffffffffffffffffffffffffffffffff1673ffffffffffffffffffffffffffffffffffffffff16815260200190815260200160002060006101000a81548160ff02191690831515021790555050565b60035481565b6000818154811061034957600080fd5b906000526020600020906002020160009150905080600001805461036c90610b2b565b80601f016020809104026020016040519081016040528092919081815260200182805461039890610b2b565b80156103e55780601f106103ba576101008083540402835291602001916103e5565b820191906000526020600020905b8154815290600101906020018083116103c857829003601f168201915b5050505050908060010154905082565b60606000805480602002602001604051908101604052809291908181526020016000905b828210156104e7578382906000526020600020906002020160405180604001604052908160008201805461044c90610b2b565b80601f016020809104026020016040519081016040528092919081815260200182805461047890610b2b565b80156104c55780601f1061049a576101008083540402835291602001916104c5565b820191906000526020600020905b8154815290600101906020018083116104a857829003601f168201915b5050505050815260200160018201548152505081526020019060010190610419565b50505050905090565b60006003544210158015610505575060045442105b905090565b60045481565b60026020528060005260406000206000915054906101000a900460ff1681565b6000600260003373ffffffffffffffffffffffffffffffffffffffff1673ffffffffffffffffffffffffffffffffffffffff16815260200190815260200160002060009054906101000a900460ff16905090565b60006003544210156105cb576040517f08c379a00000000000000000000000000000000000000000000000000000000081526004016105c290610ba8565b60405180910390fd5b60045442106105dd57600090506105ee565b426004546105eb9190610bc8565b90505b90565b600080fd5b6000819050919050565b610609816105f6565b811461061457600080fd5b50565b60008135905061062681610600565b92915050565b600060208284031215610642576106416105f1565b5b600061065084828501610617565b91505092915050565b610662816105f6565b82525050565b600060208201905061067d6000830184610659565b92915050565b600081519050919050565b600082825260208201905092915050565b60005b838110156106bd5780820151818401526020810190506106a2565b60008484015250505050565b6000601f19601f8301169050919050565b60006106e582610683565b6106ef818561068e565b93506106ff81856020860161069f565b610708816106c9565b840191505092915050565b6000604082019050818103600083015261072d81856106da565b905061073c6020830184610659565b9392505050565b600081519050919050565b600082825260208201905092915050565b6000819050602082019050919050565b600082825260208201905092915050565b600061078b82610683565b610795818561076f565b93506107a581856020860161069f565b6107ae816106c9565b840191505092915050565b6107c2816105f6565b82525050565b600060408301600083015184820360008601526107e58282610780565b91505060208301516107fa60208601826107b9565b508091505092915050565b600061081183836107c8565b905092915050565b6000602082019050919050565b600061083182610743565b61083b818561074e565b93508360208202850161084d8561075f565b8060005b85811015610889578484038952815161086a8582610805565b945061087583610819565b925060208a01995050600181019050610851565b50829750879550505050505092915050565b600060208201905081810360008301526108b58184610826565b905092915050565b60008115159050919050565b6108d2816108bd565b82525050565b60006020820190506108ed60008301846108c9565b92915050565b600073ffffffffffffffffffffffffffffffffffffffff82169050919050565b600061091e826108f3565b9050919050565b61092e81610913565b811461093957600080fd5b50565b60008135905061094b81610925565b92915050565b600060208284031215610967576109666105f1565b5b60006109758482850161093c565b91505092915050565b7f596f75206861766520616c726561647920766f7465642e000000000000000000600082015250565b60006109b460178361068e565b91506109bf8261097e565b602082019050919050565b600060208201905081810360008301526109e3816109a7565b9050919050565b7f496e76616c69642063616e64696461746520696e6465782e0000000000000000600082015250565b6000610a2060188361068e565b9150610a2b826109ea565b602082019050919050565b60006020820190508181036000830152610a4f81610a13565b9050919050565b7f4e487b7100000000000000000000000000000000000000000000000000000000600052603260045260246000fd5b7f4e487b7100000000000000000000000000000000000000000000000000000000600052601160045260246000fd5b6000610abf826105f6565b91507fffffffffffffffffffffffffffffffffffffffffffffffffffffffffffffffff8203610af157610af0610a85565b5b600182019050919050565b7f4e487b7100000000000000000000000000000000000000000000000000000000600052602260045260246000fd5b60006002820490506001821680610b4357607f821691505b602082108103610b5657610b55610afc565b5b50919050565b7f566f74696e6720686173206e6f742073746172746564207965742e0000000000600082015250565b6000610b92601b8361068e565b9150610b9d82610b5c565b602082019050919050565b60006020820190508181036000830152610bc181610b85565b9050919050565b6000610bd3826105f6565b9150610bde836105f6565b9250828203905081811115610bf657610bf5610a85565b5b9291505056fea264697066735822122022ccd0900ebb1377747993790e578069c57f25efc8dcc5e5495de6707120692764736f6c63430008130033",
  "linkReferences": {},
  "deployedLinkReferences": {}
}